:040000000CEF00F011
:10000800D9CF03F0DACF04F0F6CF05F00EED00F00B
:10001800D7EF02F00600F7CF06F0F8CF07F0F5CFDC
:1000280008F0F2A401D001D025D1F294A70ED66E23
:10003800FD0ED76E24502310D8B401D001D070D053
:10004800800E235C0C0E2458D8B001D001D04FD0BC
:1000580023C001F024C002F0D89002320132D890B7
:1000680002320132D8900232013201C00EF002C0D1
:100078000FF02350070B096E83B201D001D016D0C0
:1000880009C001F0010E026E012A02D0D890023692
:10009800012EFCD7700E0E24D96E060E0F20DA6ED4
:1000A8000250DF120EC021F00FC022F0234A242A8A
:1000B8000E502D5C0F502E58D8B001D001D05BD017
:1000C800150E215C000E2258D8A001D001D053D0C3
:1000D8009EA801D001D023D0700E2D24D96E060E13
:1000E8002E20DA6EDF50AD6E2D4A2E2A44D0900EA7
:1000F8002D5C010E2E58D8B001D001D00DD0150EB0
:10010800215C000E2258D8A001D001D005D09EA8AD
:1001180001D001D004D0E0D7236A246A2CD02BD098
:1001280083B201D001D00CD0000E246E010E236ED4
:10013800216A226A2D6A2E6A800EE8CF70F61BD0DB
:1001480070C601F00152D8B401D001D014D0106AA1
:10015800116A700E1024D96E060E1120DA6E000E88
:10016800DF6E104A112A900E105C010E1158D8A0AB
:1001780001D001D0EED73150D8B401D001D07AD017
:1001880025C001F026C002F0D89002320132D89082
:1001980002320132D890023201320150126E2550DB
:1001A800070B0A6E0D6A0B6A0C6A34D0FC0E122417
:1001B800F66EF76A7D0EF7220800F5CF0DF0050EF2
:1001C8000C6E180E0B6E34D0E30E1224F66EF76A1E
:1001D8007F0EF7220800F5CF0DF0000E0C6ED80E3A
:1001E8000B6E26D0410E1224F66EF76A7F0EF722A8
:1001F8000800F5CF0DF0050E0C6E100E0B6E18D022
:100208009F0E1224F66EF76A7E0EF7220800F5CFCD
:100218000DF0F1D73150020AD8B4C8D7010AD8B4C2
:10022800D3D7070AD8B4DED7010AD8B4E9D700D0A3
:100238000AC001F0010E026E012A02D0D8900236DF
:10024800012EFCD702500D140009D8B401D001D0FA
:1002580002D08B8201D08B92254A262A0B50255C2E
:100268000C502658D8A001D001D004D0256A266A9F
:10027800316A8B9208C0F5FF07C0F8FF06C0F7FF88
:1002880005C0F6FF04C0DAFF03C0D9FF1100CCD0C7
:100298008C808B808A9480B803D0010E346E23D072
:1002A8002DEC03F0000901E1CBD084A480AAF5D796
:1002B800C7D08C808B908A84166AC80E156E186A0F
:1002C800ED0E176E080E146E700E136E84A480AABD
:1002D8001BD02DEC03F0000917E0270E2B5C000E55
:1002E8002C5804E2346A2B6A2C6AAAD0C80E2B5CFC
:1002F800000E2C5807E2040E346E2B6A2C6A2C6A06
:10030800330E1BD0040E2CD02B50270A2C1002E1E0
:10031800020E88D0C90E2B5C000E2C5801E290D03A
:10032800EE0E2B5C000E2C5804E22BA089D0040E94
:1003380079D084B004D02C6AEE0E2B6E81D080B8B0
:1003480002D0020E0DD0710E2B5C080E2C58DAE28A
:1003580077D08C908B908A8480A872D0336A030EF1
:10036800346EC1D78C908B808A8410D084B402D02C
:1003780080BA10D0010E08D084A480AA0BD02DEC2E
:1003880003F0000907E0020E336E04D03350EEE0AC
:10039800010AF2E080A8D5D7A10E2B5C050E2C58D7
:1003A800B1E23350020AAEE04BD08C908B808A8445
:1003B80080A808D084B402D080BA15D02DEC03F000
:1003C800000911E0510E2B5C000E2C58BAE36F0E99
:1003D8002B5C000E2C5834E3830E2B5C000E2C583B
:1003E80001E25BD72DD0830E2B5C000E2C5801E365
:1003F80079D76E0E2B5C000E2C5822E2530E2B5C24
:10040800000E2C5802E3030E0DD02B50520A2C106C
:1004180001E17ED7500E2B5C000E2C58D8A02BA0E3
:100428000FD0050E316E0CD0345001E131D7010ADE
:1004380001E13FD7030A8DE0010A94E0070AB5E01D
:1004480084B003D0366A376A06D03628D8B437283D
:1004580002E0364A372A2B28D8B42C28D8B4120000
:100468002B4A2C2A12001D0E166E4C0E156E1DD02E
:1004780080BA23D0010E326E08D084B202D0030EA7
:100488000DD07D0E386404D0326A276A286A15D0E8
:100498004D0E275C1D0E285810E3020E326EF5D75C
:1004A80080BA0BD084B2F9D708D03250E1E0010A03
:1004B800E4E0030AE2E0010AF3E02728D8B4282898
:1004C80002E0274A282A80BA02D0386A03D038289E
:1004D800D8A4382A84B202D0396A03D03928D8A4DB
:1004E800392A800E2F6003D0296A2A6A1200292827
:1004F800D8B42A28D8B41200294A2A2A12009268A5
:10050800FA0E936EF80E946E7E0E956E846A836A68
:10051800826A816A806A010EC26E0B0EC16E3E0E3F
:10052800C06E880ED56EF294F28AB10ECD6E260E8C
:10053800AC6E800EAB6E400EB86E9B0EAF6E520E58
:10054800CB6E3C0EBE6EBD6AF80E946E050ECA6E7A
:100558000C0EBD6EF28E0C0C10D0C2821ED0C45090
:10056800050E09D0C450090E06D0C4500D0E03D094
:10057800C4CF2FF0010EC26E10D03050EEE0010A49
:10058800EEE0030AEAE0010AEDE0070AE6E0010A04
:10059800ECE0030AE2E0010AEBE0302A3050080AF6
:1005A800D8B4306A120006EE70F011EE90F0EE6AE0
:1005B800E550E150FCE1E250FAE100EE21F0150EC1
:1005C800EE6AE806FDE1680EF66E060EF76E000E9E
:1005D800F86E00EE36F010EE04F00900F5CFEEFFED
:1005E800E550E150FAE1000EF86E000126EF03F045
:1005F8009EA012009E90E80ECF6E8F0ECE6EB0ECCD
:1006080002F037EC02F011EC03F0352A3550140AE9
:10061800D8A41200356A18EF02F07D0E396003D0B5
:100628008A808C9E1200E30E295C040E2A58D8B0EA
:1006380080BA03D08A908C8E12003204F1E08A903E
:100648008C9E120083EC02F08B808C80FCEC02F014
:10065800FDD70F0E365C000E375801E2010C000C76
:04066800FFFFFFFF92
:107DFC00FEFFFFFFFFFFFFFFFFFFFFFFFFFFFFFF88
:107E0C00FFFFFFFFFF1F000000000000000000004C
:107E1C00FE3F000000F0FF01FE7F80FF0FF0FF032C
:107E2C00FC7F80FF0FE0FF03FCFF00FF1F00000042
:107E3C00F8FF000000C0FF07000000FE3F0000003C
:107E4C00F0FF01000080FF0F000000FC7F0000002D
:107E5C00E0FF03000000FF1FE0FF03F8FF0000003D
:107E6C00C0FF07000000FE3FC0FF07000000FE3F00
:107E7C0080FF0FF0FF01000080FF0F000000FC7F6F
:107E8C0000FF1FE0FF03000000FF1FC0FF03000006
:107E9C0000FE3FFEFFFFFFFFFFFFFFFFFFFFFFFFA7
:107EAC00FFFFFFFFFFFFFF010000000000000000CC
:107EBC0000C0FF03000000FC0F80FF07F0FF03FC75
:107ECC001F80FF07E0FF03F83F00FF0FE0FF0700F4
:107EDC000000FF0F000000F03F000000C0FF0F008B
:107EEC000000FE1F000000E07F00000080FF1F006C
:107EFC000000FC3F00FF1F000000F83F00FF3F00A8
:107F0C000000F87F00FE3F80FF03F0FF00FE7F00C3
:107F1C000000F0FF00FC7F000000E0FF00FCFF0011
:107F2C000000E0FF01000000FE07000000F8FF0168
:107F3C000000C0FF03FEFFFFFFFFFFFFFFFFFFFF7F
:107F4C00FFFFFFFFFFFFFFFFFF030000000000002B
:107F5C00000000C0FF07000000FE3F80FF0FF0FF95
:107F6C0001FC7F80FF0FE0FF03FC7F00FF1FE0FFA1
:107F7C0003000000FF1F000000F8FF010000C0FF1D
:107F8C0007000000FE3F000000F0FF01000080FF32
:107F9C000F000000FC7F00FF1FE0FF03F8FF000054
:107FAC0000C0FF07000000FE3FC0FF0F000000FEF6
:107FBC003F80FF0F000000FC7F000000E0FF03008B
:107FCC000000FF1FE0FF07F8FF000000C0FF07F8EC
:107FDC00FF000000C0FF0FFEFFFFFFFFFFFFFFFFD2
:107FEC00FFFFFFFFFFFFFFFFFFFFFF070000000089
:047FFC00F0FF000092
:020000040030CA
:04000000240E0E1E9E
:020005008181F7
:060008000FC00FE00F40E5
:00000001FF
